{
  "contractName": "RockPaperScissors",
  "abi": [
    {
      "constant": true,
      "inputs": [],
      "name": "contractBal",
      "outputs": [
        {
          "name": "",
          "type": "uint256"
        }
      ],
      "payable": false,
      "stateMutability": "view",
      "type": "function",
      "signature": "0xc9cd30a0"
    },
    {
      "constant": true,
      "inputs": [],
      "name": "contractOwner",
      "outputs": [
        {
          "name": "",
          "type": "address"
        }
      ],
      "payable": false,
      "stateMutability": "view",
      "type": "function",
      "signature": "0xce606ee0"
    },
    {
      "constant": true,
      "inputs": [
        {
          "name": "",
          "type": "address"
        }
      ],
      "name": "players",
      "outputs": [
        {
          "name": "userScore",
          "type": "uint256"
        },
        {
          "name": "scScore",
          "type": "uint256"
        }
      ],
      "payable": false,
      "stateMutability": "view",
      "type": "function",
      "signature": "0xe2eb41ff"
    },
    {
      "constant": true,
      "inputs": [
        {
          "name": "",
          "type": "uint256"
        }
      ],
      "name": "choices",
      "outputs": [
        {
          "name": "",
          "type": "string"
        }
      ],
      "payable": false,
      "stateMutability": "view",
      "type": "function",
      "signature": "0xf6fd7fde"
    },
    {
      "inputs": [],
      "payable": true,
      "stateMutability": "payable",
      "type": "constructor",
      "signature": "constructor"
    },
    {
      "anonymous": false,
      "inputs": [
        {
          "indexed": false,
          "name": "newBalence",
          "type": "uint256"
        }
      ],
      "name": "fundsAdded",
      "type": "event",
      "signature": "0x6ad1c7eec93a57ffda666322d36e246bbc1483b172d1b1163e0a14a6291cbdd8"
    },
    {
      "anonymous": false,
      "inputs": [
        {
          "indexed": false,
          "name": "amountWithdrawn",
          "type": "uint256"
        },
        {
          "indexed": false,
          "name": "newBalence",
          "type": "uint256"
        }
      ],
      "name": "fundsWithdrawn",
      "type": "event",
      "signature": "0x85470dff43902d75670eac38df826d0456b2ba2939a2e8662959a8143013554d"
    },
    {
      "anonymous": false,
      "inputs": [
        {
          "indexed": false,
          "name": "winner",
          "type": "string"
        },
        {
          "indexed": false,
          "name": "_userChoice",
          "type": "string"
        },
        {
          "indexed": false,
          "name": "_scChoice",
          "type": "string"
        }
      ],
      "name": "gameFinished",
      "type": "event",
      "signature": "0x937f1de1d53dfb5edd688e2787c2a96a42a809e5d0f59bec00e80c55fd4c1331"
    },
    {
      "constant": false,
      "inputs": [],
      "name": "addFunds",
      "outputs": [],
      "payable": true,
      "stateMutability": "payable",
      "type": "function",
      "signature": "0xa26759cb"
    },
    {
      "constant": false,
      "inputs": [
        {
          "name": "amount",
          "type": "uint256"
        }
      ],
      "name": "withdrawFunds",
      "outputs": [],
      "payable": true,
      "stateMutability": "payable",
      "type": "function",
      "signature": "0x155dd5ee"
    },
    {
      "constant": false,
      "inputs": [
        {
          "name": "userChoice",
          "type": "string"
        }
      ],
      "name": "game",
      "outputs": [],
      "payable": true,
      "stateMutability": "payable",
      "type": "function",
      "signature": "0x4f9fa2e8"
    },
    {
      "constant": true,
      "inputs": [
        {
          "name": "a",
          "type": "address"
        }
      ],
      "name": "getUserScore",
      "outputs": [
        {
          "name": "",
          "type": "uint256"
        }
      ],
      "payable": false,
      "stateMutability": "view",
      "type": "function",
      "signature": "0xb34e0c47"
    },
    {
      "constant": true,
      "inputs": [
        {
          "name": "a",
          "type": "address"
        }
      ],
      "name": "getCompScore",
      "outputs": [
        {
          "name": "",
          "type": "uint256"
        }
      ],
      "payable": false,
      "stateMutability": "view",
      "type": "function",
      "signature": "0xb8990d83"
    }
  ],
  "bytecode": "0x600160e08181527f72000000000000000000000000000000000000000000000000000000000000006101005260809081526101208281527f70000000000000000000000000000000000000000000000000000000000000006101405260a0526101a06040526101609182527f73000000000000000000000000000000000000000000000000000000000000006101805260c091909152620000a49060039081620000c1565b503460005560018054600160a060020a0319163317905562000239565b82805482825590600052602060002090810192821562000113579160200282015b828111156200011357825180516200010291849160209091019062000125565b5091602001919060010190620000e2565b5062000121929150620001a6565b5090565b828054600181600116156101000203166002900490600052602060002090601f016020900481019282601f106200016857805160ff191683800117855562000198565b8280016001018555821562000198579182015b82811115620001985782518255916020019190600101906200017b565b5062000121929150620001d1565b620001ce91905b8082111562000121576000620001c48282620001ee565b50600101620001ad565b90565b620001ce91905b80821115620001215760008155600101620001d8565b50805460018160011615610100020316600290046000825580601f1062000216575062000236565b601f016020900490600052602060002090810190620002369190620001d1565b50565b610eea80620002496000396000f3fe6080604052600436106100985763ffffffff7c0100000000000000000000000000000000000000000000000000000000600035041663155dd5ee811461009d5780634f9fa2e8146100bc578063a26759cb14610162578063b34e0c471461016a578063b8990d83146101af578063c9cd30a0146101e2578063ce606ee0146101f7578063e2eb41ff14610228578063f6fd7fde14610274575b600080fd5b6100ba600480360360208110156100b357600080fd5b5035610313565b005b6100ba600480360360208110156100d257600080fd5b8101906020810181356401000000008111156100ed57600080fd5b8201836020820111156100ff57600080fd5b8035906020019184600183028401116401000000008311171561012157600080fd5b91908080601f01602080910402602001604051908101604052809392919081815260200183838082843760009201919091525092955061040f945050505050565b6100ba6108e8565b34801561017657600080fd5b5061019d6004803603602081101561018d57600080fd5b5035600160a060020a03166109ac565b60408051918252519081900360200190f35b3480156101bb57600080fd5b5061019d600480360360208110156101d257600080fd5b5035600160a060020a03166109c7565b3480156101ee57600080fd5b5061019d6109e5565b34801561020357600080fd5b5061020c6109eb565b60408051600160a060020a039092168252519081900360200190f35b34801561023457600080fd5b5061025b6004803603602081101561024b57600080fd5b5035600160a060020a03166109fa565b6040805192835260208301919091528051918290030190f35b34801561028057600080fd5b5061029e6004803603602081101561029757600080fd5b5035610a13565b6040805160208082528351818301528351919283929083019185019080838360005b838110156102d85781810151838201526020016102c0565b50505050905090810190601f1680156103055780820380516001836020036101000a031916815260200191505b509250505060405180910390f35b600154600160a060020a0316331461038c57604080517f08c379a000000000000000000000000000000000000000000000000000000000815260206004820152601f60248201527f4f6e6c7920436f6e7472616374206f776e65722073686f756c642063616c6c00604482015290519081900360640190fd5b600080548290038155600154604051600160a060020a039091169183156108fc02918491818181858888f193505050501580156103cd573d6000803e3d6000fd5b5060005460408051838152602081019290925280517f85470dff43902d75670eac38df826d0456b2ba2939a2e8662959a8143013554d9281900390910190a150565b60005434111561048057604080517f08c379a000000000000000000000000000000000000000000000000000000000815260206004820152601260248201527f4e6f7420656e6f7567682042616c656e63650000000000000000000000000000604482015290519081900360640190fd5b6060600361048c610aba565b8154811061049657fe5b600091825260209182902001805460408051601f60026000196101006001871615020190941693909304928301859004850281018501909152818152928301828280156105245780601f106104f957610100808354040283529160200191610524565b820191906000526020600020905b81548152906001019060200180831161050757829003601f168201915b505050505090506105518260408051908101604052806001815260200160f960020a603902815250610aef565b801561057e575061057e8160408051908101604052806001815260200160f860020a607302815250610aef565b806105d757506105aa8260408051908101604052806001815260200160fc60020a600702815250610aef565b80156105d757506105d78160408051908101604052806001815260200160f960020a603902815250610aef565b8061063057506106038260408051908101604052806001815260200160f860020a607302815250610aef565b801561063057506106308160408051908101604052806001815260200160fc60020a600702815250610aef565b1561068357610640828233610bd6565b6000805434808203808455604051909392849003923392840180156108fc02929091818181858888f1935050505015801561067f573d6000803e3d6000fd5b5050505b6106a98260408051908101604052806001815260200160f960020a603902815250610aef565b80156106d657506106d68160408051908101604052806001815260200160fc60020a600702815250610aef565b8061072f57506107028260408051908101604052806001815260200160fc60020a600702815250610aef565b801561072f575061072f8160408051908101604052806001815260200160f860020a607302815250610aef565b80610788575061075b8260408051908101604052806001815260200160f860020a607302815250610aef565b801561078857506107888160408051908101604052806001815260200160f960020a603902815250610aef565b156107a157610798828233610d35565b60008054340190555b6107c78260408051908101604052806001815260200160f960020a603902815250610aef565b80156107f457506107f48160408051908101604052806001815260200160f960020a603902815250610aef565b8061084d57506108208260408051908101604052806001815260200160fc60020a600702815250610aef565b801561084d575061084d8160408051908101604052806001815260200160fc60020a600702815250610aef565b806108a657506108798260408051908101604052806001815260200160f860020a607302815250610aef565b80156108a657506108a68160408051908101604052806001815260200160f860020a607302815250610aef565b156108e4576108b6828233610df6565b60405133903480156108fc02916000818181858888f193505050501580156108e2573d6000803e3d6000fd5b505b5050565b600154600160a060020a0316331461096157604080517f08c379a000000000000000000000000000000000000000000000000000000000815260206004820152601f60248201527f4f6e6c7920436f6e7472616374206f776e65722073686f756c642063616c6c00604482015290519081900360640190fd5b6000341161096e57600080fd5b6000805434019081905560408051918252517f6ad1c7eec93a57ffda666322d36e246bbc1483b172d1b1163e0a14a6291cbdd89181900360200190a1565b600160a060020a031660009081526002602052604090205490565b600160a060020a031660009081526002602052604090206001015490565b60005481565b600154600160a060020a031681565b6002602052600090815260409020805460019091015482565b6003805482908110610a2157fe5b600091825260209182902001805460408051601f6002600019610100600187161502019094169390930492830185900485028101850190915281815293509091830182828015610ab25780601f10610a8757610100808354040283529160200191610ab2565b820191906000526020600020905b815481529060010190602001808311610a9557829003601f168201915b505050505081565b6040805143601d1901406020808301919091524282840152825180830384018152606090920190925280519101206003900690565b6000816040516020018082805190602001908083835b60208310610b245780518252601f199092019160209182019101610b05565b6001836020036101000a03801982511681845116808217855250505050505090500191505060405160208183030381529060405280519060200120836040516020018082805190602001908083835b60208310610b925780518252601f199092019160209182019101610b73565b6001836020036101000a0380198251168184511680821785525050505050509050019150506040516020818303038152906040528051906020012014905092915050565b600160a060020a038116600090815260026020908152604080832080546001019055805160608082526004908201527f7573657200000000000000000000000000000000000000000000000000000000608082015260a081840181815288519183019190915287517f937f1de1d53dfb5edd688e2787c2a96a42a809e5d0f59bec00e80c55fd4c133195899589958594939085019260c0860192890191908190849084905b83811015610c93578181015183820152602001610c7b565b50505050905090810190601f168015610cc05780820380516001836020036101000a031916815260200191505b50848103825285518152855160209182019187019080838360005b83811015610cf3578181015183820152602001610cdb565b50505050905090810190601f168015610d205780820380516001836020036101000a031916815260200191505b509550505050505060405180910390a1505050565b600160a060020a0381166000908152600260209081526040808320600190810180549091019055805160608082526004908201527f636f6d7000000000000000000000000000000000000000000000000000000000608082015260a081840181815288519183019190915287517f937f1de1d53dfb5edd688e2787c2a96a42a809e5d0f59bec00e80c55fd4c133195899589958594939085019260c08601928901919081908490849083811015610c93578181015183820152602001610c7b565b600160a060020a038116600090815260026020908152604080832080546001908101825590810180549091019055805160608082526004908201527f6472617700000000000000000000000000000000000000000000000000000000608082015260a081840181815288519183019190915287517f937f1de1d53dfb5edd688e2787c2a96a42a809e5d0f59bec00e80c55fd4c133195899589958594939085019260c08601928901919081908490849083811015610c93578181015183820152602001610c7b56fea165627a7a723058207ae3e4e140f357ceb4360b5fdec8b368aab553bb489b60a3491d2d09d463343e0029",
  "source": "pragma solidity ^0.5.0;\ncontract RockPaperScissors {\n\tuint public contractBal;\n\taddress payable public contractOwner;\n\t//uint public userScore=0;\n\t//uint public scScore=0;\n\tstruct player {\n\t\tuint userScore;\n\t\tuint scScore;\n\t}\n\tmapping(address => player) public players;\n\tstring[] public choices= [\"r\",\"p\",\"s\"];\n\tconstructor() public payable {\n\t\tcontractBal = msg.value;\n\t\tcontractOwner = msg.sender;\n\t}\n\tmodifier onlyOwner { require(msg.sender == contractOwner,\"Only Contract owner should call\");_; } \n\n\tevent fundsAdded(uint newBalence);\n\tevent fundsWithdrawn(uint amountWithdrawn,uint newBalence);\n\tevent gameFinished(string winner,string _userChoice,string _scChoice);\n\n\tfunction addFunds() public payable onlyOwner{\n\t\trequire(msg.value>0);\n\t\tcontractBal = contractBal + msg.value;\n\t\temit fundsAdded(contractBal);\n\t}\n\tfunction withdrawFunds(uint amount) onlyOwner public payable {\n\t\tcontractBal = contractBal - amount;\n\t\tcontractOwner.transfer(amount);\n\t\temit fundsWithdrawn(amount, contractBal);\n\t}\n\tfunction game(string memory userChoice) public payable {\n\t\t\trequire (contractBal >= msg.value,\"Not enough Balence\");\n\t\t\tstring memory scChoice = choices[getSCChoice()];\n\t\t\tif((compareStrings(userChoice,'r') && compareStrings(scChoice,'s')) || (compareStrings(userChoice,'p') && compareStrings(scChoice,'r')) || (compareStrings(userChoice,'s') && compareStrings(scChoice,'p'))) {\n\t\t\t\twins(userChoice,scChoice,msg.sender);\t\n\t\t\t\tuint newContractBal = contractBal - msg.value;\t\n\t\t\t\tuint x = contractBal - newContractBal;\n\t\t\t\tcontractBal = newContractBal;\t\t\n\t\t\t\tmsg.sender.transfer(x + msg.value);\n\t\t\t}\t\t\t\n\t\t\tif((compareStrings(userChoice,'r') && compareStrings(scChoice,'p')) || (compareStrings(userChoice,'p') && compareStrings(scChoice,'s')) || (compareStrings(userChoice,'s') && compareStrings(scChoice,'r'))) {\n\t\t\t\tlose(userChoice,scChoice,msg.sender);\n\t\t\t\tcontractBal = contractBal + msg.value;\n\t\t\t\t}\t\t\t\n\t\t\tif((compareStrings(userChoice,'r') && compareStrings(scChoice,'r')) || (compareStrings(userChoice,'p') && compareStrings(scChoice,'p')) || (compareStrings(userChoice,'s') && compareStrings(scChoice,'s'))) {\n\t\t\t\tdraw(userChoice,scChoice,msg.sender);\n\t\t\t\tmsg.sender.transfer(msg.value);\n\t\t\t}\t\t\n\n\t}\n\tfunction compareStrings (string memory a, string memory b) internal pure\n     returns (bool) {\n  \t return (keccak256(abi.encodePacked((a))) == keccak256(abi.encodePacked((b))) );\n       }\n\tfunction wins(string memory userChoice,string memory scChoice,address p) internal {\n\t\tplayers[p].userScore ++;\n\t\temit gameFinished(\"user\",userChoice,scChoice);\n\t}\n\tfunction lose(string memory userChoice,string memory scChoice,address p) internal {\n\t\tplayers[p].scScore ++;\n\t\temit gameFinished(\"comp\",userChoice,scChoice);\n\t}\n\tfunction draw(string memory userChoice,string memory scChoice,address p) internal {\n\t\tplayers[p].userScore ++;\n\t\tplayers[p].scScore ++;\n\t\temit gameFinished(\"draw\",userChoice,scChoice);\n\t}\n\n\tfunction getSCChoice() internal returns(uint) {\n\t\tuint n =3;\n\t\tbytes32 seed = keccak256(abi.encodePacked(blockhash(block.number-n*10),block.timestamp));\n\t\treturn uint(seed)%n;\n\t}\n\tfunction getUserScore(address a) public view returns(uint){\n\t\treturn players[a].userScore;\n\t}\n\tfunction getCompScore(address a) public view returns(uint){\n\t\treturn players[a].scScore;\n\t}\n\t\n}",
  "sourcePath": "/home/ubuntu/eth-rock-paper-scissors/contracts/RockPaperScissors.sol",
  "compiler": {
    "name": "solc",
    "version": "0.5.0+commit.1d4f565a.Emscripten.clang"
  },
  "schemaVersion": "3.0.1",
  "updatedAt": "2020-11-18T05:00:35.492Z",
  "devdoc": {
    "methods": {}
  },
  "userdoc": {
    "methods": {}
  }
}