{
  "contractName": "RockPaperScissors",
  "abi": [
    {
      "constant": true,
      "inputs": [],
      "name": "scScore",
      "outputs": [
        {
          "name": "",
          "type": "uint256"
        }
      ],
      "payable": false,
      "stateMutability": "view",
      "type": "function",
      "signature": "0x55c0bedc"
    },
    {
      "constant": true,
      "inputs": [],
      "name": "userScore",
      "outputs": [
        {
          "name": "",
          "type": "uint256"
        }
      ],
      "payable": false,
      "stateMutability": "view",
      "type": "function",
      "signature": "0xbe841f6c"
    },
    {
      "constant": true,
      "inputs": [],
      "name": "contractBal",
      "outputs": [
        {
          "name": "",
          "type": "uint256"
        }
      ],
      "payable": false,
      "stateMutability": "view",
      "type": "function",
      "signature": "0xc9cd30a0"
    },
    {
      "constant": true,
      "inputs": [],
      "name": "contractOwner",
      "outputs": [
        {
          "name": "",
          "type": "address"
        }
      ],
      "payable": false,
      "stateMutability": "view",
      "type": "function",
      "signature": "0xce606ee0"
    },
    {
      "constant": true,
      "inputs": [
        {
          "name": "",
          "type": "uint256"
        }
      ],
      "name": "choices",
      "outputs": [
        {
          "name": "",
          "type": "string"
        }
      ],
      "payable": false,
      "stateMutability": "view",
      "type": "function",
      "signature": "0xf6fd7fde"
    },
    {
      "inputs": [],
      "payable": true,
      "stateMutability": "payable",
      "type": "constructor",
      "signature": "constructor"
    },
    {
      "anonymous": false,
      "inputs": [
        {
          "indexed": false,
          "name": "newBalence",
          "type": "uint256"
        }
      ],
      "name": "fundsAdded",
      "type": "event",
      "signature": "0x6ad1c7eec93a57ffda666322d36e246bbc1483b172d1b1163e0a14a6291cbdd8"
    },
    {
      "anonymous": false,
      "inputs": [
        {
          "indexed": false,
          "name": "amountWithdrawn",
          "type": "uint256"
        },
        {
          "indexed": false,
          "name": "newBalence",
          "type": "uint256"
        }
      ],
      "name": "fundsWithdrawn",
      "type": "event",
      "signature": "0x85470dff43902d75670eac38df826d0456b2ba2939a2e8662959a8143013554d"
    },
    {
      "anonymous": false,
      "inputs": [
        {
          "indexed": false,
          "name": "winner",
          "type": "string"
        },
        {
          "indexed": false,
          "name": "_userChoice",
          "type": "string"
        },
        {
          "indexed": false,
          "name": "_scChoice",
          "type": "string"
        }
      ],
      "name": "gameFinished",
      "type": "event",
      "signature": "0x937f1de1d53dfb5edd688e2787c2a96a42a809e5d0f59bec00e80c55fd4c1331"
    },
    {
      "constant": false,
      "inputs": [],
      "name": "addFunds",
      "outputs": [],
      "payable": true,
      "stateMutability": "payable",
      "type": "function",
      "signature": "0xa26759cb"
    },
    {
      "constant": false,
      "inputs": [
        {
          "name": "amount",
          "type": "uint256"
        }
      ],
      "name": "withdrawFunds",
      "outputs": [],
      "payable": true,
      "stateMutability": "payable",
      "type": "function",
      "signature": "0x155dd5ee"
    },
    {
      "constant": false,
      "inputs": [
        {
          "name": "userChoice",
          "type": "string"
        }
      ],
      "name": "game",
      "outputs": [],
      "payable": true,
      "stateMutability": "payable",
      "type": "function",
      "signature": "0x4f9fa2e8"
    }
  ],
  "bytecode": "0x600060028190556003908155600160e08181527f72000000000000000000000000000000000000000000000000000000000000006101005260809081526101208281527f70000000000000000000000000000000000000000000000000000000000000006101405260a0526101a06040526101609182527f73000000000000000000000000000000000000000000000000000000000000006101805260c091909152620000b09160049190620000cd565b503460005560018054600160a060020a0319163317905562000245565b8280548282559060005260206000209081019282156200011f579160200282015b828111156200011f57825180516200010e91849160209091019062000131565b5091602001919060010190620000ee565b506200012d929150620001b2565b5090565b828054600181600116156101000203166002900490600052602060002090601f016020900481019282601f106200017457805160ff1916838001178555620001a4565b82800160010185558215620001a4579182015b82811115620001a457825182559160200191906001019062000187565b506200012d929150620001dd565b620001da91905b808211156200012d576000620001d08282620001fa565b50600101620001b9565b90565b620001da91905b808211156200012d5760008155600101620001e4565b50805460018160011615610100020316600290046000825580601f1062000222575062000242565b601f016020900490600052602060002090810190620002429190620001dd565b50565b610e0580620002556000396000f3fe60806040526004361061008d5763ffffffff7c0100000000000000000000000000000000000000000000000000000000600035041663155dd5ee81146100925780634f9fa2e8146100b157806355c0bedc14610157578063a26759cb1461017e578063be841f6c14610186578063c9cd30a01461019b578063ce606ee0146101b0578063f6fd7fde146101ee575b600080fd5b6100af600480360360208110156100a857600080fd5b503561028d565b005b6100af600480360360208110156100c757600080fd5b8101906020810181356401000000008111156100e257600080fd5b8201836020820111156100f457600080fd5b8035906020019184600183028401116401000000008311171561011657600080fd5b91908080601f0160208091040260200160405190810160405280939291908181526020018383808284376000920191909152509295506103a3945050505050565b34801561016357600080fd5b5061016c610874565b60408051918252519081900360200190f35b6100af61087a565b34801561019257600080fd5b5061016c61094b565b3480156101a757600080fd5b5061016c610951565b3480156101bc57600080fd5b506101c5610957565b6040805173ffffffffffffffffffffffffffffffffffffffff9092168252519081900360200190f35b3480156101fa57600080fd5b506102186004803603602081101561021157600080fd5b5035610973565b6040805160208082528351818301528351919283929083019185019080838360005b8381101561025257818101518382015260200161023a565b50505050905090810190601f16801561027f5780820380516001836020036101000a031916815260200191505b509250505060405180910390f35b60015473ffffffffffffffffffffffffffffffffffffffff16331461031357604080517f08c379a000000000000000000000000000000000000000000000000000000000815260206004820152601f60248201527f4f6e6c7920436f6e7472616374206f776e65722073686f756c642063616c6c00604482015290519081900360640190fd5b60008054829003815560015460405173ffffffffffffffffffffffffffffffffffffffff9091169183156108fc02918491818181858888f19350505050158015610361573d6000803e3d6000fd5b5060005460408051838152602081019290925280517f85470dff43902d75670eac38df826d0456b2ba2939a2e8662959a8143013554d9281900390910190a150565b60005434111561041457604080517f08c379a000000000000000000000000000000000000000000000000000000000815260206004820152601260248201527f4e6f7420656e6f7567682042616c656e63650000000000000000000000000000604482015290519081900360640190fd5b60606004610420610a1a565b8154811061042a57fe5b600091825260209182902001805460408051601f60026000196101006001871615020190941693909304928301859004850281018501909152818152928301828280156104b85780601f1061048d576101008083540402835291602001916104b8565b820191906000526020600020905b81548152906001019060200180831161049b57829003601f168201915b505050505090506104e58260408051908101604052806001815260200160f960020a603902815250610a4f565b801561051257506105128160408051908101604052806001815260200160f860020a607302815250610a4f565b8061056b575061053e8260408051908101604052806001815260200160fc60020a600702815250610a4f565b801561056b575061056b8160408051908101604052806001815260200160f960020a603902815250610a4f565b806105c457506105978260408051908101604052806001815260200160f860020a607302815250610a4f565b80156105c457506105c48160408051908101604052806001815260200160fc60020a600702815250610a4f565b15610611576105d38282610b36565b60008054349081900382556040513392600290920280156108fc0292909190818181858888f1935050505015801561060f573d6000803e3d6000fd5b505b6106378260408051908101604052806001815260200160f960020a603902815250610a4f565b801561066457506106648160408051908101604052806001815260200160fc60020a600702815250610a4f565b806106bd57506106908260408051908101604052806001815260200160fc60020a600702815250610a4f565b80156106bd57506106bd8160408051908101604052806001815260200160f860020a607302815250610a4f565b8061071657506106e98260408051908101604052806001815260200160f860020a607302815250610a4f565b801561071657506107168160408051908101604052806001815260200160f960020a603902815250610a4f565b1561072e576107258282610c7f565b60008054340190555b6107548260408051908101604052806001815260200160f960020a603902815250610a4f565b801561078157506107818160408051908101604052806001815260200160f960020a603902815250610a4f565b806107da57506107ad8260408051908101604052806001815260200160fc60020a600702815250610a4f565b80156107da57506107da8160408051908101604052806001815260200160fc60020a600702815250610a4f565b8061083357506108068260408051908101604052806001815260200160f860020a607302815250610a4f565b801561083357506108338160408051908101604052806001815260200160f860020a607302815250610a4f565b15610870576108428282610d26565b60405133903480156108fc02916000818181858888f1935050505015801561086e573d6000803e3d6000fd5b505b5050565b60035481565b60015473ffffffffffffffffffffffffffffffffffffffff16331461090057604080517f08c379a000000000000000000000000000000000000000000000000000000000815260206004820152601f60248201527f4f6e6c7920436f6e7472616374206f776e65722073686f756c642063616c6c00604482015290519081900360640190fd5b6000341161090d57600080fd5b6000805434019081905560408051918252517f6ad1c7eec93a57ffda666322d36e246bbc1483b172d1b1163e0a14a6291cbdd89181900360200190a1565b60025481565b60005481565b60015473ffffffffffffffffffffffffffffffffffffffff1681565b600480548290811061098157fe5b600091825260209182902001805460408051601f6002600019610100600187161502019094169390930492830185900485028101850190915281815293509091830182828015610a125780601f106109e757610100808354040283529160200191610a12565b820191906000526020600020905b8154815290600101906020018083116109f557829003601f168201915b505050505081565b6040805143601d1901406020808301919091524282840152825180830384018152606090920190925280519101206003900690565b6000816040516020018082805190602001908083835b60208310610a845780518252601f199092019160209182019101610a65565b6001836020036101000a03801982511681845116808217855250505050505090500191505060405160208183030381529060405280519060200120836040516020018082805190602001908083835b60208310610af25780518252601f199092019160209182019101610ad3565b6001836020036101000a0380198251168184511680821785525050505050509050019150506040516020818303038152906040528051906020012014905092915050565b6002805460010190556040805160608082526004908201527f7573657200000000000000000000000000000000000000000000000000000000608082015260a0602080830182815286519284019290925285517f937f1de1d53dfb5edd688e2787c2a96a42a809e5d0f59bec00e80c55fd4c1331948794879490938493919284019160c085019188019080838360005b83811015610bde578181015183820152602001610bc6565b50505050905090810190601f168015610c0b5780820380516001836020036101000a031916815260200191505b50848103825285518152855160209182019187019080838360005b83811015610c3e578181015183820152602001610c26565b50505050905090810190601f168015610c6b5780820380516001836020036101000a031916815260200191505b509550505050505060405180910390a15050565b6003805460010190556040805160608082526004908201527f636f6d7000000000000000000000000000000000000000000000000000000000608082015260a0602080830182815286519284019290925285517f937f1de1d53dfb5edd688e2787c2a96a42a809e5d0f59bec00e80c55fd4c1331948794879490938493919284019160c0850191880190808383600083811015610bde578181015183820152602001610bc6565b6002805460019081019091556003805490910190556040805160608082526004908201527f6472617700000000000000000000000000000000000000000000000000000000608082015260a0602080830182815286519284019290925285517f937f1de1d53dfb5edd688e2787c2a96a42a809e5d0f59bec00e80c55fd4c1331948794879490938493919284019160c0850191880190808383600083811015610bde578181015183820152602001610bc656fea165627a7a723058207f401b6e8a2ba5a1ee6e4d236cf85dbe73f8d9f173ee00137e44e6aea47ce8540029",
  "source": "pragma solidity ^0.5.0;\ncontract RockPaperScissors {\n\tuint public contractBal;\n\taddress payable public contractOwner;\n\tuint public userScore=0;\n\tuint public scScore=0;\n\tstring[] public choices= [\"r\",\"p\",\"s\"];\n\tconstructor() public payable {\n\t\tcontractBal = msg.value;\n\t\tcontractOwner = msg.sender;\n\t}\n\tmodifier onlyOwner { require(msg.sender == contractOwner,\"Only Contract owner should call\");_; } \n\n\tevent fundsAdded(uint newBalence);\n\tevent fundsWithdrawn(uint amountWithdrawn,uint newBalence);\n\tevent gameFinished(string winner,string _userChoice,string _scChoice);\n\n\tfunction addFunds() public payable onlyOwner{\n\t\trequire(msg.value>0);\n\t\tcontractBal = contractBal + msg.value;\n\t\temit fundsAdded(contractBal);\n\t}\n\tfunction withdrawFunds(uint amount) onlyOwner public payable {\n\t\tcontractBal = contractBal - amount;\n\t\tcontractOwner.transfer(amount);\n\t\temit fundsWithdrawn(amount, contractBal);\n\t}\n\tfunction game(string memory userChoice) public payable {\n\t\t\trequire (contractBal >= msg.value,\"Not enough Balence\");\n\t\t\tstring memory scChoice = choices[getSCChoice()];\n\t\t\tif((compareStrings(userChoice,'r') && compareStrings(scChoice,'s')) || (compareStrings(userChoice,'p') && compareStrings(scChoice,'r')) || (compareStrings(userChoice,'s') && compareStrings(scChoice,'p'))) {\n\t\t\t\twins(userChoice,scChoice);\n\t\t\t\tcontractBal = contractBal - msg.value;\n\t\t\t\tmsg.sender.transfer(2*msg.value);\n\t\t\t}\t\t\t\n\t\t\tif((compareStrings(userChoice,'r') && compareStrings(scChoice,'p')) || (compareStrings(userChoice,'p') && compareStrings(scChoice,'s')) || (compareStrings(userChoice,'s') && compareStrings(scChoice,'r'))) {\n\t\t\t\tlose(userChoice,scChoice);\n\t\t\t\tcontractBal = contractBal + msg.value;\n\t\t\t\t}\t\t\t\n\t\t\tif((compareStrings(userChoice,'r') && compareStrings(scChoice,'r')) || (compareStrings(userChoice,'p') && compareStrings(scChoice,'p')) || (compareStrings(userChoice,'s') && compareStrings(scChoice,'s'))) {\n\t\t\t\tdraw(userChoice,scChoice);\n\t\t\t\tmsg.sender.transfer(msg.value);\n\t\t\t}\t\t\t\n\n\n\t}\n\tfunction compareStrings (string memory a, string memory b) internal \n     returns (bool) {\n  \t return (keccak256(abi.encodePacked((a))) == keccak256(abi.encodePacked((b))) );\n       }\n\tfunction wins(string memory userChoice,string memory scChoice) internal {\n\t\tuserScore++;\n\t\temit gameFinished(\"user\",userChoice,scChoice);\n\t}\n\tfunction lose(string memory userChoice,string memory scChoice) internal {\n\t\tscScore++;\n\t\temit gameFinished(\"comp\",userChoice,scChoice);\n\t}\n\tfunction draw(string memory userChoice,string memory scChoice) internal {\n\t\tuserScore++;\n\t\tscScore++;\n\t\temit gameFinished(\"draw\",userChoice,scChoice);\n\t}\n\n\tfunction getSCChoice() internal returns(uint) {\n\t\tuint n =3;\n\t\tbytes32 seed = keccak256(abi.encodePacked(blockhash(block.number-n*10),block.timestamp));\n\t\treturn uint(seed)%n;\n\t}\n\t\n\t\n}",
  "sourcePath": "/home/ubuntu/eth-rock-paper-scissors/contracts/RockPaperScissors.sol",
  "compiler": {
    "name": "solc",
    "version": "0.5.0+commit.1d4f565a.Emscripten.clang"
  },
  "schemaVersion": "3.0.1",
  "updatedAt": "2019-04-18T11:47:45.249Z",
  "devdoc": {
    "methods": {}
  },
  "userdoc": {
    "methods": {}
  }
}